{
  "contractName": "predictionMarket",
  "abi": [
    {
      "anonymous": false,
      "inputs": [
        {
          "indexed": true,
          "internalType": "address",
          "name": "previousOwner",
          "type": "address"
        },
        {
          "indexed": true,
          "internalType": "address",
          "name": "newOwner",
          "type": "address"
        }
      ],
      "name": "OwnershipTransferred",
      "type": "event"
    },
    {
      "inputs": [
        {
          "internalType": "enum predictionMarket.Side",
          "name": "",
          "type": "uint8"
        }
      ],
      "name": "bets",
      "outputs": [
        {
          "internalType": "uint256",
          "name": "",
          "type": "uint256"
        }
      ],
      "stateMutability": "view",
      "type": "function"
    },
    {
      "inputs": [
        {
          "internalType": "address",
          "name": "",
          "type": "address"
        },
        {
          "internalType": "enum predictionMarket.Side",
          "name": "",
          "type": "uint8"
        }
      ],
      "name": "betsPerUser",
      "outputs": [
        {
          "internalType": "uint256",
          "name": "",
          "type": "uint256"
        }
      ],
      "stateMutability": "view",
      "type": "function"
    },
    {
      "inputs": [],
      "name": "marketFinished",
      "outputs": [
        {
          "internalType": "bool",
          "name": "",
          "type": "bool"
        }
      ],
      "stateMutability": "view",
      "type": "function"
    },
    {
      "inputs": [],
      "name": "owner",
      "outputs": [
        {
          "internalType": "address",
          "name": "",
          "type": "address"
        }
      ],
      "stateMutability": "view",
      "type": "function"
    },
    {
      "inputs": [],
      "name": "renounceOwnership",
      "outputs": [],
      "stateMutability": "nonpayable",
      "type": "function"
    },
    {
      "inputs": [
        {
          "internalType": "address",
          "name": "newOwner",
          "type": "address"
        }
      ],
      "name": "transferOwnership",
      "outputs": [],
      "stateMutability": "nonpayable",
      "type": "function"
    },
    {
      "inputs": [
        {
          "internalType": "enum predictionMarket.Side",
          "name": "_side",
          "type": "uint8"
        }
      ],
      "name": "placeBet",
      "outputs": [],
      "stateMutability": "payable",
      "type": "function"
    },
    {
      "inputs": [],
      "name": "claimFunds",
      "outputs": [],
      "stateMutability": "nonpayable",
      "type": "function"
    },
    {
      "inputs": [
        {
          "internalType": "enum predictionMarket.Side",
          "name": "_winner",
          "type": "uint8"
        },
        {
          "internalType": "enum predictionMarket.Side",
          "name": "_loser",
          "type": "uint8"
        }
      ],
      "name": "reportResult",
      "outputs": [],
      "stateMutability": "nonpayable",
      "type": "function"
    }
  ],
  "bytecode": "0x608060405234801561001057600080fd5b5061002d61002261003260201b60201c565b61003a60201b60201c565b6100fe565b600033905090565b60008060009054906101000a900473ffffffffffffffffffffffffffffffffffffffff169050816000806101000a81548173ffffffffffffffffffffffffffffffffffffffff021916908373ffffffffffffffffffffffffffffffffffffffff1602179055508173ffffffffffffffffffffffffffffffffffffffff168173ffffffffffffffffffffffffffffffffffffffff167f8be0079c531659141344cd1fd0a4f28419497f9722a3daafe3b4186f6b6457e060405160405180910390a35050565b6116458061010d6000396000f3fe6080604052600436106100865760003560e01c8063806ad85811610059578063806ad858146101245780638da5cb5b1461014f5780639ce409921461017a578063ac307773146101b7578063f2fde38b146101ce57610086565b8063430468441461008b5780634ec942b7146100a7578063715018a6146100d05780637e0ecc00146100e7575b600080fd5b6100a560048036038101906100a09190610ef9565b6101f7565b005b3480156100b357600080fd5b506100ce60048036038101906100c99190610f26565b61036c565b005b3480156100dc57600080fd5b506100e56104b7565b005b3480156100f357600080fd5b5061010e60048036038101906101099190610ef9565b61053f565b60405161011b919061125c565b60405180910390f35b34801561013057600080fd5b50610139610557565b6040516101469190611121565b60405180910390f35b34801561015b57600080fd5b5061016461056a565b6040516101719190611106565b60405180910390f35b34801561018657600080fd5b506101a1600480360381019061019c9190610eb9565b610593565b6040516101ae919061125c565b60405180910390f35b3480156101c357600080fd5b506101cc6105b8565b005b3480156101da57600080fd5b506101f560048036038101906101f09190610e8c565b610c9e565b005b60001515600260009054906101000a900460ff1615151461024d576040517f08c379a00000000000000000000000000000000000000000000000000000000081526004016102449061117c565b60405180910390fd5b60003411610290576040517f08c379a0000000000000000000000000000000000000000000000000000000008152600401610287906111dc565b60405180910390fd5b34600360008360018111156102a8576102a761141a565b5b60018111156102ba576102b961141a565b5b815260200190815260200160002060008282546102d79190611293565b9250508190555034600460003373ffffffffffffffffffffffffffffffffffffffff1673ffffffffffffffffffffffffffffffffffffffff16815260200190815260200160002060008360018111156103335761033261141a565b5b60018111156103455761034461141a565b5b815260200190815260200160002060008282546103629190611293565b9250508190555050565b610374610d96565b73ffffffffffffffffffffffffffffffffffffffff1661039261056a565b73ffffffffffffffffffffffffffffffffffffffff16146103e8576040517f08c379a00000000000000000000000000000000000000000000000000000000081526004016103df906111bc565b60405180910390fd5b60001515600260009054906101000a900460ff1615151461043e576040517f08c379a00000000000000000000000000000000000000000000000000000000081526004016104359061115c565b60405180910390fd5b81600160000160006101000a81548160ff021916908360018111156104665761046561141a565b5b021790555080600160000160016101000a81548160ff021916908360018111156104935761049261141a565b5b02179055506001600260006101000a81548160ff0219169083151502179055505050565b6104bf610d96565b73ffffffffffffffffffffffffffffffffffffffff166104dd61056a565b73ffffffffffffffffffffffffffffffffffffffff1614610533576040517f08c379a000000000000000000000000000000000000000000000000000000000815260040161052a906111bc565b60405180910390fd5b61053d6000610d9e565b565b60036020528060005260406000206000915090505481565b600260009054906101000a900460ff1681565b60008060009054906101000a900473ffffffffffffffffffffffffffffffffffffffff16905090565b6004602052816000526040600020602052806000526040600020600091509150505481565b60011515600260009054906101000a900460ff1615151461060e576040517f08c379a0000000000000000000000000000000000000000000000000000000008152600401610605906111fc565b60405180910390fd5b6000600460003373ffffffffffffffffffffffffffffffffffffffff1673ffffffffffffffffffffffffffffffffffffffff16815260200190815260200160002060006001808111156106645761066361141a565b5b60018111156106765761067561141a565b5b815260200190815260200160002054600460003373ffffffffffffffffffffffffffffffffffffffff1673ffffffffffffffffffffffffffffffffffffffff16815260200190815260200160002060008060018111156106d9576106d861141a565b5b60018111156106eb576106ea61141a565b5b8152602001908152602001600020546107049190611293565b905060008111610749576040517f08c379a00000000000000000000000000000000000000000000000000000000081526004016107409061119c565b60405180910390fd5b6000600360008060018111156107625761076161141a565b5b60018111156107745761077361141a565b5b81526020019081526020016000205414806107c657506000600360006001808111156107a3576107a261141a565b5b60018111156107b5576107b461141a565b5b815260200190815260200160002054145b15610971576000600460003373ffffffffffffffffffffffffffffffffffffffff1673ffffffffffffffffffffffffffffffffffffffff16815260200190815260200160002060008060018111156108215761082061141a565b5b60018111156108335761083261141a565b5b8152602001908152602001600020819055506000600460003373ffffffffffffffffffffffffffffffffffffffff1673ffffffffffffffffffffffffffffffffffffffff168152602001908152602001600020600060018081111561089b5761089a61141a565b5b60018111156108ad576108ac61141a565b5b81526020019081526020016000208190555060003373ffffffffffffffffffffffffffffffffffffffff16826040516108e5906110f1565b60006040518083038185875af1925050503d8060008114610922576040519150601f19603f3d011682016040523d82523d6000602084013e610927565b606091505b505090508061096b576040517f08c379a00000000000000000000000000000000000000000000000000000000081526004016109629061121c565b60405180910390fd5b50610c9b565b6000600460003373ffffffffffffffffffffffffffffffffffffffff1673ffffffffffffffffffffffffffffffffffffffff1681526020019081526020016000206000600160000160009054906101000a900460ff1660018111156109d9576109d861141a565b5b60018111156109eb576109ea61141a565b5b815260200190815260200160002054905060008111610a3f576040517f08c379a0000000000000000000000000000000000000000000000000000000008152600401610a369061123c565b60405180910390fd5b600060036000600160000160009054906101000a900460ff166001811115610a6a57610a6961141a565b5b6001811115610a7c57610a7b61141a565b5b8152602001908152602001600020548260036000600160000160019054906101000a900460ff166001811115610ab557610ab461141a565b5b6001811115610ac757610ac661141a565b5b815260200190815260200160002054610ae0919061131a565b610aea91906112e9565b82610af59190611293565b90506000600460003373ffffffffffffffffffffffffffffffffffffffff1673ffffffffffffffffffffffffffffffffffffffff1681526020019081526020016000206000806001811115610b4d57610b4c61141a565b5b6001811115610b5f57610b5e61141a565b5b8152602001908152602001600020819055506000600460003373ffffffffffffffffffffffffffffffffffffffff1673ffffffffffffffffffffffffffffffffffffffff1681526020019081526020016000206000600180811115610bc757610bc661141a565b5b6001811115610bd957610bd861141a565b5b81526020019081526020016000208190555060003373ffffffffffffffffffffffffffffffffffffffff1682604051610c11906110f1565b60006040518083038185875af1925050503d8060008114610c4e576040519150601f19603f3d011682016040523d82523d6000602084013e610c53565b606091505b5050905080610c97576040517f08c379a0000000000000000000000000000000000000000000000000000000008152600401610c8e9061121c565b60405180910390fd5b5050505b50565b610ca6610d96565b73ffffffffffffffffffffffffffffffffffffffff16610cc461056a565b73ffffffffffffffffffffffffffffffffffffffff1614610d1a576040517f08c379a0000000000000000000000000000000000000000000000000000000008152600401610d11906111bc565b60405180910390fd5b600073ffffffffffffffffffffffffffffffffffffffff168173ffffffffffffffffffffffffffffffffffffffff161415610d8a576040517f08c379a0000000000000000000000000000000000000000000000000000000008152600401610d819061113c565b60405180910390fd5b610d9381610d9e565b50565b600033905090565b60008060009054906101000a900473ffffffffffffffffffffffffffffffffffffffff169050816000806101000a81548173ffffffffffffffffffffffffffffffffffffffff021916908373ffffffffffffffffffffffffffffffffffffffff1602179055508173ffffffffffffffffffffffffffffffffffffffff168173ffffffffffffffffffffffffffffffffffffffff167f8be0079c531659141344cd1fd0a4f28419497f9722a3daafe3b4186f6b6457e060405160405180910390a35050565b600081359050610e71816115e8565b92915050565b600081359050610e86816115ff565b92915050565b600060208284031215610ea257610ea1611449565b5b6000610eb084828501610e62565b91505092915050565b60008060408385031215610ed057610ecf611449565b5b6000610ede85828601610e62565b9250506020610eef85828601610e77565b9150509250929050565b600060208284031215610f0f57610f0e611449565b5b6000610f1d84828501610e77565b91505092915050565b60008060408385031215610f3d57610f3c611449565b5b6000610f4b85828601610e77565b9250506020610f5c85828601610e77565b9150509250929050565b610f6f81611374565b82525050565b610f7e81611386565b82525050565b6000610f91602683611282565b9150610f9c8261144e565b604082019050919050565b6000610fb4601083611282565b9150610fbf8261149d565b602082019050919050565b6000610fd7600e83611282565b9150610fe2826114c6565b602082019050919050565b6000610ffa601183611282565b9150611005826114ef565b602082019050919050565b600061101d602083611282565b915061102882611518565b602082019050919050565b6000611040601483611282565b915061104b82611541565b602082019050919050565b6000611063600083611277565b915061106e8261156a565b600082019050919050565b6000611086601683611282565b91506110918261156d565b602082019050919050565b60006110a9601483611282565b91506110b482611596565b602082019050919050565b60006110cc602083611282565b91506110d7826115bf565b602082019050919050565b6110eb816113b2565b82525050565b60006110fc82611056565b9150819050919050565b600060208201905061111b6000830184610f66565b92915050565b60006020820190506111366000830184610f75565b92915050565b6000602082019050818103600083015261115581610f84565b9050919050565b6000602082019050818103600083015261117581610fa7565b9050919050565b6000602082019050818103600083015261119581610fca565b9050919050565b600060208201905081810360008301526111b581610fed565b9050919050565b600060208201905081810360008301526111d581611010565b9050919050565b600060208201905081810360008301526111f581611033565b9050919050565b6000602082019050818103600083015261121581611079565b9050919050565b600060208201905081810360008301526112358161109c565b9050919050565b60006020820190508181036000830152611255816110bf565b9050919050565b600060208201905061127160008301846110e2565b92915050565b600081905092915050565b600082825260208201905092915050565b600061129e826113b2565b91506112a9836113b2565b9250827fffffffffffffffffffffffffffffffffffffffffffffffffffffffffffffffff038211156112de576112dd6113bc565b5b828201905092915050565b60006112f4826113b2565b91506112ff836113b2565b92508261130f5761130e6113eb565b5b828204905092915050565b6000611325826113b2565b9150611330836113b2565b9250817fffffffffffffffffffffffffffffffffffffffffffffffffffffffffffffffff0483118215151615611369576113686113bc565b5b828202905092915050565b600061137f82611392565b9050919050565b60008115159050919050565b600073ffffffffffffffffffffffffffffffffffffffff82169050919050565b6000819050919050565b7f4e487b7100000000000000000000000000000000000000000000000000000000600052601160045260246000fd5b7f4e487b7100000000000000000000000000000000000000000000000000000000600052601260045260246000fd5b7f4e487b7100000000000000000000000000000000000000000000000000000000600052602160045260246000fd5b600080fd5b7f4f776e61626c653a206e6577206f776e657220697320746865207a65726f206160008201527f6464726573730000000000000000000000000000000000000000000000000000602082015250565b7f616c7265616479207265706f7274656400000000000000000000000000000000600082015250565b7f6d61726b65742065787069726564000000000000000000000000000000000000600082015250565b7f6e6f206465706f7369747320666f756e64000000000000000000000000000000600082015250565b7f4f776e61626c653a2063616c6c6572206973206e6f7420746865206f776e6572600082015250565b7f6d75737420626574206d6f7265207468616e2030000000000000000000000000600082015250565b50565b7f6d61726b6574206e6f7420657870697265642079657400000000000000000000600082015250565b7f6661696c656420746f2073656e64204574686572000000000000000000000000600082015250565b7f796f7520646f206e6f74206861766520616e792077696e6e696e672062657473600082015250565b6115f181611374565b81146115fc57600080fd5b50565b6002811061160c57600080fd5b5056fea264697066735822122036fe86cb2bf461e860cc7be15c4aac52479d510ee86417e351fd39d2bb50a8db64736f6c63430008070033",
  "immutableReferences": {},
  "source": "// SPDX-License-Identifier: MIT\r\n\r\npragma solidity 0.8.7;\r\n\r\nimport \"@openzeppelin/contracts/access/Ownable.sol\";\r\n\r\n/// @title FIFA2022 Prediction (Blockchain Developer Bootcamp Final Project)\r\n/// @author Andor Szegedi\r\n/// @notice This is a prototype of a FIFA2022 Prediction Market pool\r\n/// @dev reportResult to be called manually by contract owner in this version\r\n/// @custom:experimental This is an experimental contract.\r\n\r\ncontract predictionMarket is Ownable {\r\n\r\n  enum Side { FranceWin, FranceLoose }\r\n\r\n  struct Result {\r\n    Side winner;\r\n    Side loser;\r\n  }\r\n\r\n  Result result;\r\n\r\n  bool public marketFinished;\r\n\r\n  mapping(Side => uint) public bets;\r\n  mapping(address => mapping(Side => uint)) public betsPerUser;\r\n\r\n  /// @notice Will France win FIFA2022? Pick a side and pay more than 0 ETH\r\n  function placeBet(Side _side) external payable {\r\n    require(marketFinished == false, 'market expired');\r\n    require(msg.value > 0, 'must bet more than 0');\r\n    bets[_side] += msg.value;\r\n    betsPerUser[msg.sender][_side] += msg.value;\r\n  }\r\n\r\n  function claimFunds() external {\r\n    require(marketFinished == true, 'market not expired yet');\r\n    uint totalDepositedbyUser =\r\n      betsPerUser[msg.sender][Side.FranceWin] +\r\n      betsPerUser[msg.sender][Side.FranceLoose];\r\n    require(totalDepositedbyUser > 0, 'no deposits found');\r\n  /// @notice if one side did not receive any bets = everybody gets a refund\r\n    if (bets[Side.FranceWin] == 0 || bets[Side.FranceLoose] == 0) {\r\n        betsPerUser[msg.sender][Side.FranceWin] = 0;\r\n        betsPerUser[msg.sender][Side.FranceLoose] = 0;\r\n      (bool sent, ) =\r\n        msg.sender.call{value: totalDepositedbyUser}(\"\");\r\n        require(sent, \"failed to send Ether\");\r\n    } else {\r\n      uint userBet = betsPerUser[msg.sender][result.winner];\r\n      require(userBet > 0, 'you do not have any winning bets');\r\n  /// @notice gains distributed proportionally to users bets\r\n      uint gain = userBet + bets[result.loser] * userBet / bets[result.winner];\r\n      betsPerUser[msg.sender][Side.FranceWin] = 0;\r\n      betsPerUser[msg.sender][Side.FranceLoose] = 0;\r\n      (bool sent, ) = msg.sender.call{value: gain}(\"\");\r\n      require(sent, \"failed to send Ether\");\r\n      }\r\n  }\r\n\r\n  /// @notice to be called only by the contract owner manually in this version\r\n  /// @dev owner to be replaced by custom Chainlink Oracle in production\r\n  function reportResult(Side _winner, Side _loser) external onlyOwner {\r\n    require(marketFinished == false, 'already reported');\r\n    result.winner = _winner;\r\n    result.loser = _loser;\r\n    marketFinished = true;\r\n  }\r\n}\r\n",
  "sourcePath": "C:/Users/admin/Desktop/blockchain-developer-bootcamp-final-project/contracts/predictionMarket.sol",
  "compiler": {
    "name": "solc",
    "version": "0.8.7+commit.e28d00a7.Emscripten.clang"
  },
  "schemaVersion": "3.4.0",
  "updatedAt": "2021-12-21T23:21:20.146Z",
  "devdoc": {
    "author": "Andor Szegedi",
    "custom:experimental": "This is an experimental contract.",
    "details": "reportResult to be called manually by contract owner in this version",
    "kind": "dev",
    "methods": {
      "owner()": {
        "details": "Returns the address of the current owner."
      },
      "renounceOwnership()": {
        "details": "Leaves the contract without owner. It will not be possible to call `onlyOwner` functions anymore. Can only be called by the current owner. NOTE: Renouncing ownership will leave the contract without an owner, thereby removing any functionality that is only available to the owner."
      },
      "reportResult(uint8,uint8)": {
        "details": "owner to be replaced by custom Chainlink Oracle in production"
      },
      "transferOwnership(address)": {
        "details": "Transfers ownership of the contract to a new account (`newOwner`). Can only be called by the current owner."
      }
    },
    "title": "FIFA2022 Prediction (Blockchain Developer Bootcamp Final Project)",
    "version": 1
  },
  "userdoc": {
    "kind": "user",
    "methods": {
      "placeBet(uint8)": {
        "notice": "Will France win FIFA2022? Pick a side and pay more than 0 ETH"
      },
      "reportResult(uint8,uint8)": {
        "notice": "to be called only by the contract owner manually in this version"
      }
    },
    "notice": "This is a prototype of a FIFA2022 Prediction Market pool",
    "version": 1
  }
}